{
  "_format": "hh-sol-artifact-1",
  "contractName": "DeloreanOriginals",
  "sourceName": "src/hardhat/contracts/NFT.sol",
  "abi": [
    {
      "inputs": [],
      "stateMutability": "payable",
      "type": "constructor"
    },
    {
      "anonymous": false,
      "inputs": [
        {
          "indexed": true,
          "internalType": "address",
          "name": "owner",
          "type": "address"
        },
        {
          "indexed": true,
          "internalType": "address",
          "name": "approved",
          "type": "address"
        },
        {
          "indexed": true,
          "internalType": "uint256",
          "name": "tokenId",
          "type": "uint256"
        }
      ],
      "name": "Approval",
      "type": "event"
    },
    {
      "anonymous": false,
      "inputs": [
        {
          "indexed": true,
          "internalType": "address",
          "name": "owner",
          "type": "address"
        },
        {
          "indexed": true,
          "internalType": "address",
          "name": "operator",
          "type": "address"
        },
        {
          "indexed": false,
          "internalType": "bool",
          "name": "approved",
          "type": "bool"
        }
      ],
      "name": "ApprovalForAll",
      "type": "event"
    },
    {
      "anonymous": false,
      "inputs": [
        {
          "indexed": true,
          "internalType": "address",
          "name": "from",
          "type": "address"
        },
        {
          "indexed": true,
          "internalType": "address",
          "name": "to",
          "type": "address"
        },
        {
          "indexed": true,
          "internalType": "uint256",
          "name": "tokenId",
          "type": "uint256"
        }
      ],
      "name": "Transfer",
      "type": "event"
    },
    {
      "inputs": [
        {
          "internalType": "address",
          "name": "to",
          "type": "address"
        },
        {
          "internalType": "uint256",
          "name": "tokenId",
          "type": "uint256"
        }
      ],
      "name": "approve",
      "outputs": [],
      "stateMutability": "nonpayable",
      "type": "function"
    },
    {
      "inputs": [
        {
          "internalType": "address",
          "name": "owner",
          "type": "address"
        }
      ],
      "name": "balanceOf",
      "outputs": [
        {
          "internalType": "uint256",
          "name": "",
          "type": "uint256"
        }
      ],
      "stateMutability": "view",
      "type": "function"
    },
    {
      "inputs": [
        {
          "internalType": "uint256",
          "name": "_tokenID",
          "type": "uint256"
        },
        {
          "internalType": "address payable",
          "name": "_receiver",
          "type": "address"
        }
      ],
      "name": "checkRoyaltyReceiver",
      "outputs": [],
      "stateMutability": "nonpayable",
      "type": "function"
    },
    {
      "inputs": [
        {
          "internalType": "uint256",
          "name": "tokenId",
          "type": "uint256"
        }
      ],
      "name": "getApproved",
      "outputs": [
        {
          "internalType": "address",
          "name": "",
          "type": "address"
        }
      ],
      "stateMutability": "view",
      "type": "function"
    },
    {
      "inputs": [],
      "name": "getBalance",
      "outputs": [
        {
          "internalType": "uint256",
          "name": "",
          "type": "uint256"
        }
      ],
      "stateMutability": "view",
      "type": "function"
    },
    {
      "inputs": [
        {
          "internalType": "uint256",
          "name": "_tokenID",
          "type": "uint256"
        },
        {
          "internalType": "uint256",
          "name": "soldAmount",
          "type": "uint256"
        }
      ],
      "name": "getRoyaltyAmount",
      "outputs": [
        {
          "internalType": "uint256",
          "name": "",
          "type": "uint256"
        }
      ],
      "stateMutability": "view",
      "type": "function"
    },
    {
      "inputs": [
        {
          "internalType": "uint256",
          "name": "_token",
          "type": "uint256"
        }
      ],
      "name": "getRoyaltyPercent",
      "outputs": [
        {
          "internalType": "uint256",
          "name": "",
          "type": "uint256"
        }
      ],
      "stateMutability": "view",
      "type": "function"
    },
    {
      "inputs": [
        {
          "internalType": "uint256",
          "name": "_tokenID",
          "type": "uint256"
        }
      ],
      "name": "getRoyaltyReceiver",
      "outputs": [
        {
          "internalType": "address payable",
          "name": "",
          "type": "address"
        }
      ],
      "stateMutability": "view",
      "type": "function"
    },
    {
      "inputs": [],
      "name": "getTokenIds",
      "outputs": [
        {
          "internalType": "uint256[]",
          "name": "",
          "type": "uint256[]"
        }
      ],
      "stateMutability": "view",
      "type": "function"
    },
    {
      "inputs": [
        {
          "internalType": "uint256",
          "name": "_tokenID",
          "type": "uint256"
        }
      ],
      "name": "getWhitelistAddress",
      "outputs": [
        {
          "internalType": "address",
          "name": "",
          "type": "address"
        }
      ],
      "stateMutability": "view",
      "type": "function"
    },
    {
      "inputs": [
        {
          "internalType": "address",
          "name": "owner",
          "type": "address"
        },
        {
          "internalType": "address",
          "name": "operator",
          "type": "address"
        }
      ],
      "name": "isApprovedForAll",
      "outputs": [
        {
          "internalType": "bool",
          "name": "",
          "type": "bool"
        }
      ],
      "stateMutability": "view",
      "type": "function"
    },
    {
      "inputs": [
        {
          "internalType": "string",
          "name": "_tokenURI",
          "type": "string"
        },
        {
          "internalType": "uint256",
          "name": "_royaltyPrc",
          "type": "uint256"
        }
      ],
      "name": "mint",
      "outputs": [
        {
          "internalType": "uint256",
          "name": "",
          "type": "uint256"
        }
      ],
      "stateMutability": "nonpayable",
      "type": "function"
    },
    {
      "inputs": [],
      "name": "name",
      "outputs": [
        {
          "internalType": "string",
          "name": "",
          "type": "string"
        }
      ],
      "stateMutability": "view",
      "type": "function"
    },
    {
      "inputs": [
        {
          "internalType": "uint256",
          "name": "tokenId",
          "type": "uint256"
        }
      ],
      "name": "ownerOf",
      "outputs": [
        {
          "internalType": "address",
          "name": "",
          "type": "address"
        }
      ],
      "stateMutability": "view",
      "type": "function"
    },
    {
      "inputs": [
        {
          "internalType": "uint256",
          "name": "_tokenID",
          "type": "uint256"
        }
      ],
      "name": "removeWhitelistAddress",
      "outputs": [],
      "stateMutability": "nonpayable",
      "type": "function"
    },
    {
      "inputs": [
        {
          "internalType": "address",
          "name": "from",
          "type": "address"
        },
        {
          "internalType": "address",
          "name": "to",
          "type": "address"
        },
        {
          "internalType": "uint256",
          "name": "tokenId",
          "type": "uint256"
        }
      ],
      "name": "safeTransferFrom",
      "outputs": [],
      "stateMutability": "nonpayable",
      "type": "function"
    },
    {
      "inputs": [
        {
          "internalType": "address",
          "name": "from",
          "type": "address"
        },
        {
          "internalType": "address",
          "name": "to",
          "type": "address"
        },
        {
          "internalType": "uint256",
          "name": "tokenId",
          "type": "uint256"
        },
        {
          "internalType": "bytes",
          "name": "data",
          "type": "bytes"
        }
      ],
      "name": "safeTransferFrom",
      "outputs": [],
      "stateMutability": "nonpayable",
      "type": "function"
    },
    {
      "inputs": [
        {
          "internalType": "address",
          "name": "operator",
          "type": "address"
        },
        {
          "internalType": "bool",
          "name": "approved",
          "type": "bool"
        }
      ],
      "name": "setApprovalForAll",
      "outputs": [],
      "stateMutability": "nonpayable",
      "type": "function"
    },
    {
      "inputs": [
        {
          "internalType": "uint256",
          "name": "_tokenID",
          "type": "uint256"
        },
        {
          "internalType": "address",
          "name": "_whitelistAddress",
          "type": "address"
        }
      ],
      "name": "setWhitelistAddress",
      "outputs": [],
      "stateMutability": "nonpayable",
      "type": "function"
    },
    {
      "inputs": [
        {
          "internalType": "bytes4",
          "name": "interfaceId",
          "type": "bytes4"
        }
      ],
      "name": "supportsInterface",
      "outputs": [
        {
          "internalType": "bool",
          "name": "",
          "type": "bool"
        }
      ],
      "stateMutability": "view",
      "type": "function"
    },
    {
      "inputs": [],
      "name": "symbol",
      "outputs": [
        {
          "internalType": "string",
          "name": "",
          "type": "string"
        }
      ],
      "stateMutability": "view",
      "type": "function"
    },
    {
      "inputs": [
        {
          "internalType": "uint256",
          "name": "index",
          "type": "uint256"
        }
      ],
      "name": "tokenByIndex",
      "outputs": [
        {
          "internalType": "uint256",
          "name": "",
          "type": "uint256"
        }
      ],
      "stateMutability": "view",
      "type": "function"
    },
    {
      "inputs": [],
      "name": "tokenID",
      "outputs": [
        {
          "internalType": "uint256",
          "name": "",
          "type": "uint256"
        }
      ],
      "stateMutability": "view",
      "type": "function"
    },
    {
      "inputs": [
        {
          "internalType": "uint256",
          "name": "",
          "type": "uint256"
        }
      ],
      "name": "tokenIDtoRoyalty",
      "outputs": [
        {
          "internalType": "uint256",
          "name": "tokenID",
          "type": "uint256"
        },
        {
          "internalType": "address payable",
          "name": "receiver",
          "type": "address"
        },
        {
          "internalType": "uint256",
          "name": "royaltyPercent",
          "type": "uint256"
        }
      ],
      "stateMutability": "view",
      "type": "function"
    },
    {
      "inputs": [
        {
          "internalType": "address",
          "name": "owner",
          "type": "address"
        },
        {
          "internalType": "uint256",
          "name": "index",
          "type": "uint256"
        }
      ],
      "name": "tokenOfOwnerByIndex",
      "outputs": [
        {
          "internalType": "uint256",
          "name": "",
          "type": "uint256"
        }
      ],
      "stateMutability": "view",
      "type": "function"
    },
    {
      "inputs": [
        {
          "internalType": "uint256",
          "name": "tokenId",
          "type": "uint256"
        }
      ],
      "name": "tokenURI",
      "outputs": [
        {
          "internalType": "string",
          "name": "",
          "type": "string"
        }
      ],
      "stateMutability": "view",
      "type": "function"
    },
    {
      "inputs": [],
      "name": "totalSupply",
      "outputs": [
        {
          "internalType": "uint256",
          "name": "",
          "type": "uint256"
        }
      ],
      "stateMutability": "view",
      "type": "function"
    },
    {
      "inputs": [
        {
          "internalType": "address",
          "name": "from",
          "type": "address"
        },
        {
          "internalType": "address",
          "name": "to",
          "type": "address"
        },
        {
          "internalType": "uint256",
          "name": "tokenId",
          "type": "uint256"
        }
      ],
      "name": "transferFrom",
      "outputs": [],
      "stateMutability": "nonpayable",
      "type": "function"
    },
    {
      "inputs": [
        {
          "internalType": "uint256",
          "name": "",
          "type": "uint256"
        }
      ],
      "name": "whitelistAddress",
      "outputs": [
        {
          "internalType": "address",
          "name": "",
          "type": "address"
        }
      ],
      "stateMutability": "view",
      "type": "function"
    }
  ],
  "bytecode": "0x60a06040526040518060400160405280601281526020017f44656c6f7265616e204f726967696e616c7300000000000000000000000000008152506040518060400160405280600481526020017f444c524e00000000000000000000000000000000000000000000000000000000815250816000908051906020019062000088929190620000e1565b508060019080519060200190620000a1929190620000e1565b5050503373ffffffffffffffffffffffffffffffffffffffff1660808173ffffffffffffffffffffffffffffffffffffffff1660601b81525050620001f6565b828054620000ef9062000191565b90600052602060002090601f0160209004810192826200011357600085556200015f565b82601f106200012e57805160ff19168380011785556200015f565b828001600101855582156200015f579182015b828111156200015e57825182559160200191906001019062000141565b5b5090506200016e919062000172565b5090565b5b808211156200018d57600081600090555060010162000173565b5090565b60006002820490506001821680620001aa57607f821691505b60208210811415620001c157620001c0620001c7565b5b50919050565b7f4e487b7100000000000000000000000000000000000000000000000000000000600052602260045260246000fd5b60805160601c613ef66200021260003960005050613ef66000f3fe608060405234801561001057600080fd5b50600436106101cf5760003560e01c80635b71ecb511610104578063a22cb465116100a2578063c4540bbc11610071578063c4540bbc1461058e578063c77a0635146105aa578063c87b56dd146105da578063e985e9c51461060a576101cf565b8063a22cb46514610506578063a5c42ef114610522578063b88d4fde14610540578063bc9f64841461055c576101cf565b806370a08231116100de57806370a082311461046c5780637f3b86151461049c57806393df9934146104b857806395d89b41146104e8576101cf565b80635b71ecb5146103ee5780636352211e1461041e57806367f718a91461044e576101cf565b806318160ddd116101715780632f745c591161014b5780632f745c591461034257806342842e0e146103725780634f6ccce71461038e578063565853af146103be576101cf565b806318160ddd146102d857806323b872dd146102f65780632c2a592814610312576101cf565b80630776e7aa116101ad5780630776e7aa14610252578063081812fc1461026e578063095ea7b31461029e57806312065fe0146102ba576101cf565b806301ffc9a7146101d4578063056b01ce1461020457806306fdde0314610234575b600080fd5b6101ee60048036038101906101e99190612d49565b61063a565b6040516101fb9190613328565b60405180910390f35b61021e60048036038101906102199190612d9b565b6106b4565b60405161022b9190613565565b60405180910390f35b61023c6107b9565b6040516102499190613343565b60405180910390f35b61026c60048036038101906102679190612e54565b61084b565b005b61028860048036038101906102839190612def565b610996565b6040516102959190613284565b60405180910390f35b6102b860048036038101906102b39190612d0d565b6109dc565b005b6102c2610af4565b6040516102cf9190613565565b60405180910390f35b6102e0610b04565b6040516102ed9190613565565b60405180910390f35b610310600480360381019061030b9190612c07565b610b11565b005b61032c60048036038101906103279190612def565b610b71565b6040516103399190613284565b60405180910390f35b61035c60048036038101906103579190612d0d565b610ba4565b6040516103699190613565565b60405180910390f35b61038c60048036038101906103879190612c07565b610c49565b005b6103a860048036038101906103a39190612def565b610c69565b6040516103b59190613565565b60405180910390f35b6103d860048036038101906103d39190612def565b610d00565b6040516103e59190613284565b60405180910390f35b61040860048036038101906104039190612def565b610d3d565b604051610415919061329f565b60405180910390f35b61043860048036038101906104339190612def565b610d7d565b6040516104459190613284565b60405180910390f35b610456610e2f565b6040516104639190613306565b60405180910390f35b61048660048036038101906104819190612b79565b610f29565b6040516104939190613565565b60405180910390f35b6104b660048036038101906104b19190612def565b610fe1565b005b6104d260048036038101906104cd9190612def565b61112d565b6040516104df9190613565565b60405180910390f35b6104f061114d565b6040516104fd9190613343565b60405180910390f35b610520600480360381019061051b9190612cd1565b6111df565b005b61052a6111f5565b6040516105379190613565565b60405180910390f35b61055a60048036038101906105559190612c56565b6111fb565b005b61057660048036038101906105719190612def565b61125d565b60405161058593929190613580565b60405180910390f35b6105a860048036038101906105a39190612e18565b6112a7565b005b6105c460048036038101906105bf9190612e90565b61142d565b6040516105d19190613565565b60405180910390f35b6105f460048036038101906105ef9190612def565b6114c9565b6040516106019190613343565b60405180910390f35b610624600480360381019061061f9190612bcb565b6115dc565b6040516106319190613328565b60405180910390f35b60007f780e9d63000000000000000000000000000000000000000000000000000000007bffffffffffffffffffffffffffffffffffffffffffffffffffffffff1916827bffffffffffffffffffffffffffffffffffffffffffffffffffffffff191614806106ad57506106ac82611670565b5b9050919050565b60006001600a546106c591906136ba565b600a819055506106d361293c565b82816040018181525050600a5481600001818152505033816020019073ffffffffffffffffffffffffffffffffffffffff16908173ffffffffffffffffffffffffffffffffffffffff168152505080600d6000600a5481526020019081526020016000206000820151816000015560208201518160010160006101000a81548173ffffffffffffffffffffffffffffffffffffffff021916908373ffffffffffffffffffffffffffffffffffffffff160217905550604082015181600201559050506107a133600a54611752565b6107ad600a5485611770565b600a5491505092915050565b6060600080546107c890613897565b80601f01602080910402602001604051908101604052809291908181526020018280546107f490613897565b80156108415780601f1061081657610100808354040283529160200191610841565b820191906000526020600020905b81548152906001019060200180831161082457829003601f168201915b5050505050905090565b6000600d60008481526020019081526020016000209050600073ffffffffffffffffffffffffffffffffffffffff168160010160009054906101000a900473ffffffffffffffffffffffffffffffffffffffff1673ffffffffffffffffffffffffffffffffffffffff16141561099157818160010160006101000a81548173ffffffffffffffffffffffffffffffffffffffff021916908373ffffffffffffffffffffffffffffffffffffffff16021790555080600d6000858152602001908152602001600020600082015481600001556001820160009054906101000a900473ffffffffffffffffffffffffffffffffffffffff168160010160006101000a81548173ffffffffffffffffffffffffffffffffffffffff021916908373ffffffffffffffffffffffffffffffffffffffff160217905550600282015481600201559050505b505050565b60006109a1826117e4565b6004600083815260200190815260200160002060009054906101000a900473ffffffffffffffffffffffffffffffffffffffff169050919050565b60006109e782610d7d565b90508073ffffffffffffffffffffffffffffffffffffffff168373ffffffffffffffffffffffffffffffffffffffff161415610a58576040517f08c379a0000000000000000000000000000000000000000000000000000000008152600401610a4f906134e5565b60405180910390fd5b8073ffffffffffffffffffffffffffffffffffffffff16610a7761182f565b73ffffffffffffffffffffffffffffffffffffffff161480610aa65750610aa581610aa061182f565b6115dc565b5b610ae5576040517f08c379a0000000000000000000000000000000000000000000000000000000008152600401610adc90613465565b60405180910390fd5b610aef8383611837565b505050565b6000610aff33610f29565b905090565b6000600880549050905090565b610b22610b1c61182f565b826118f0565b610b61576040517f08c379a0000000000000000000000000000000000000000000000000000000008152600401610b5890613545565b60405180910390fd5b610b6c838383611985565b505050565b600c6020528060005260406000206000915054906101000a900473ffffffffffffffffffffffffffffffffffffffff1681565b6000610baf83610f29565b8210610bf0576040517f08c379a0000000000000000000000000000000000000000000000000000000008152600401610be790613365565b60405180910390fd5b600660008473ffffffffffffffffffffffffffffffffffffffff1673ffffffffffffffffffffffffffffffffffffffff168152602001908152602001600020600083815260200190815260200160002054905092915050565b610c64838383604051806020016040528060008152506111fb565b505050565b6000610c73610b04565b8210610cb4576040517f08c379a0000000000000000000000000000000000000000000000000000000008152600401610cab90613505565b60405180910390fd5b60088281548110610cee577f4e487b7100000000000000000000000000000000000000000000000000000000600052603260045260246000fd5b90600052602060002001549050919050565b6000600c600083815260200190815260200160002060009054906101000a900473ffffffffffffffffffffffffffffffffffffffff169050919050565b6000600d600083815260200190815260200160002060010160009054906101000a900473ffffffffffffffffffffffffffffffffffffffff169050919050565b6000806002600084815260200190815260200160002060009054906101000a900473ffffffffffffffffffffffffffffffffffffffff169050600073ffffffffffffffffffffffffffffffffffffffff168173ffffffffffffffffffffffffffffffffffffffff161415610e26576040517f08c379a0000000000000000000000000000000000000000000000000000000008152600401610e1d906134c5565b60405180910390fd5b80915050919050565b60606000610e3c33610f29565b67ffffffffffffffff811115610e7b577f4e487b7100000000000000000000000000000000000000000000000000000000600052604160045260246000fd5b604051908082528060200260200182016040528015610ea95781602001602082028036833780820191505090505b50905060005b610eb833610f29565b811015610f2157610ec93382610ba4565b828281518110610f02577f4e487b7100000000000000000000000000000000000000000000000000000000600052603260045260246000fd5b6020026020010181815250508080610f19906138fa565b915050610eaf565b819250505090565b60008073ffffffffffffffffffffffffffffffffffffffff168273ffffffffffffffffffffffffffffffffffffffff161415610f9a576040517f08c379a0000000000000000000000000000000000000000000000000000000008152600401610f9190613425565b60405180910390fd5b600360008373ffffffffffffffffffffffffffffffffffffffff1673ffffffffffffffffffffffffffffffffffffffff168152602001908152602001600020549050919050565b3373ffffffffffffffffffffffffffffffffffffffff163073ffffffffffffffffffffffffffffffffffffffff16636352211e836040518263ffffffff1660e01b81526004016110319190613565565b60206040518083038186803b15801561104957600080fd5b505afa15801561105d573d6000803e3d6000fd5b505050506040513d601f19601f820116820180604052508101906110819190612ba2565b73ffffffffffffffffffffffffffffffffffffffff16146110d7576040517f08c379a00000000000000000000000000000000000000000000000000000000081526004016110ce906134a5565b60405180910390fd5b6000600c600083815260200190815260200160002060006101000a81548173ffffffffffffffffffffffffffffffffffffffff021916908373ffffffffffffffffffffffffffffffffffffffff16021790555050565b6000600d6000838152602001908152602001600020600201549050919050565b60606001805461115c90613897565b80601f016020809104026020016040519081016040528092919081815260200182805461118890613897565b80156111d55780601f106111aa576101008083540402835291602001916111d5565b820191906000526020600020905b8154815290600101906020018083116111b857829003601f168201915b5050505050905090565b6111f16111ea61182f565b8383611bec565b5050565b600a5481565b61120c61120661182f565b836118f0565b61124b576040517f08c379a000000000000000000000000000000000000000000000000000000000815260040161124290613545565b60405180910390fd5b61125784848484611d59565b50505050565b600d6020528060005260406000206000915090508060000154908060010160009054906101000a900473ffffffffffffffffffffffffffffffffffffffff16908060020154905083565b3373ffffffffffffffffffffffffffffffffffffffff163073ffffffffffffffffffffffffffffffffffffffff16636352211e846040518263ffffffff1660e01b81526004016112f79190613565565b60206040518083038186803b15801561130f57600080fd5b505afa158015611323573d6000803e3d6000fd5b505050506040513d601f19601f820116820180604052508101906113479190612ba2565b73ffffffffffffffffffffffffffffffffffffffff161461139d576040517f08c379a0000000000000000000000000000000000000000000000000000000008152600401611394906134a5565b60405180910390fd5b600073ffffffffffffffffffffffffffffffffffffffff168173ffffffffffffffffffffffffffffffffffffffff1614156113d757600080fd5b80600c600084815260200190815260200160002060006101000a81548173ffffffffffffffffffffffffffffffffffffffff021916908373ffffffffffffffffffffffffffffffffffffffff1602179055505050565b600082600d60008581526020019081526020016000206000015414611487576040517f08c379a000000000000000000000000000000000000000000000000000000000815260040161147e90613525565b60405180910390fd5b6000600d60008581526020019081526020016000206002015490506000606482856114b29190613741565b6114bc9190613710565b9050809250505092915050565b60606114d4826117e4565b6000600e600084815260200190815260200160002080546114f490613897565b80601f016020809104026020016040519081016040528092919081815260200182805461152090613897565b801561156d5780601f106115425761010080835404028352916020019161156d565b820191906000526020600020905b81548152906001019060200180831161155057829003601f168201915b50505050509050600061157e611db5565b90506000815114156115945781925050506115d7565b6000825111156115c95780826040516020016115b1929190613260565b604051602081830303815290604052925050506115d7565b6115d284611dcc565b925050505b919050565b6000600560008473ffffffffffffffffffffffffffffffffffffffff1673ffffffffffffffffffffffffffffffffffffffff16815260200190815260200160002060008373ffffffffffffffffffffffffffffffffffffffff1673ffffffffffffffffffffffffffffffffffffffff16815260200190815260200160002060009054906101000a900460ff16905092915050565b60007f80ac58cd000000000000000000000000000000000000000000000000000000007bffffffffffffffffffffffffffffffffffffffffffffffffffffffff1916827bffffffffffffffffffffffffffffffffffffffffffffffffffffffff1916148061173b57507f5b5e139f000000000000000000000000000000000000000000000000000000007bffffffffffffffffffffffffffffffffffffffffffffffffffffffff1916827bffffffffffffffffffffffffffffffffffffffffffffffffffffffff1916145b8061174b575061174a82611e34565b5b9050919050565b61176c828260405180602001604052806000815250611e9e565b5050565b61177982611ef9565b6117b8576040517f08c379a00000000000000000000000000000000000000000000000000000000081526004016117af90613445565b60405180910390fd5b80600e600084815260200190815260200160002090805190602001906117df929190612973565b505050565b6117ed81611ef9565b61182c576040517f08c379a0000000000000000000000000000000000000000000000000000000008152600401611823906134c5565b60405180910390fd5b50565b600033905090565b816004600083815260200190815260200160002060006101000a81548173ffffffffffffffffffffffffffffffffffffffff021916908373ffffffffffffffffffffffffffffffffffffffff160217905550808273ffffffffffffffffffffffffffffffffffffffff166118aa83610d7d565b73ffffffffffffffffffffffffffffffffffffffff167f8c5be1e5ebec7d5bd14f71427d1e84f3dd0314c0f7b2291e5b200ac8c7c3b92560405160405180910390a45050565b6000806118fc83610d7d565b90508073ffffffffffffffffffffffffffffffffffffffff168473ffffffffffffffffffffffffffffffffffffffff16148061193e575061193d81856115dc565b5b8061197c57508373ffffffffffffffffffffffffffffffffffffffff1661196484610996565b73ffffffffffffffffffffffffffffffffffffffff16145b91505092915050565b8273ffffffffffffffffffffffffffffffffffffffff166119a582610d7d565b73ffffffffffffffffffffffffffffffffffffffff16146119fb576040517f08c379a00000000000000000000000000000000000000000000000000000000081526004016119f2906133a5565b60405180910390fd5b600073ffffffffffffffffffffffffffffffffffffffff168273ffffffffffffffffffffffffffffffffffffffff161415611a6b576040517f08c379a0000000000000000000000000000000000000000000000000000000008152600401611a62906133e5565b60405180910390fd5b611a76838383611f65565b611a81600082611837565b6001600360008573ffffffffffffffffffffffffffffffffffffffff1673ffffffffffffffffffffffffffffffffffffffff1681526020019081526020016000206000828254611ad1919061379b565b925050819055506001600360008473ffffffffffffffffffffffffffffffffffffffff1673ffffffffffffffffffffffffffffffffffffffff1681526020019081526020016000206000828254611b2891906136ba565b92505081905550816002600083815260200190815260200160002060006101000a81548173ffffffffffffffffffffffffffffffffffffffff021916908373ffffffffffffffffffffffffffffffffffffffff160217905550808273ffffffffffffffffffffffffffffffffffffffff168473ffffffffffffffffffffffffffffffffffffffff167fddf252ad1be2c89b69c2b068fc378daa952ba7f163c4a11628f55a4df523b3ef60405160405180910390a4611be7838383612079565b505050565b8173ffffffffffffffffffffffffffffffffffffffff168373ffffffffffffffffffffffffffffffffffffffff161415611c5b576040517f08c379a0000000000000000000000000000000000000000000000000000000008152600401611c5290613405565b60405180910390fd5b80600560008573ffffffffffffffffffffffffffffffffffffffff1673ffffffffffffffffffffffffffffffffffffffff16815260200190815260200160002060008473ffffffffffffffffffffffffffffffffffffffff1673ffffffffffffffffffffffffffffffffffffffff16815260200190815260200160002060006101000a81548160ff0219169083151502179055508173ffffffffffffffffffffffffffffffffffffffff168373ffffffffffffffffffffffffffffffffffffffff167f17307eab39ab6107e8899845ad3d59bd9653f200f220920489ca2b5937696c3183604051611d4c9190613328565b60405180910390a3505050565b611d64848484611985565b611d708484848461207e565b611daf576040517f08c379a0000000000000000000000000000000000000000000000000000000008152600401611da690613385565b60405180910390fd5b50505050565b606060405180602001604052806000815250905090565b6060611dd7826117e4565b6000611de1611db5565b90506000815111611e015760405180602001604052806000815250611e2c565b80611e0b84612215565b604051602001611e1c929190613260565b6040516020818303038152906040525b915050919050565b60007f01ffc9a7000000000000000000000000000000000000000000000000000000007bffffffffffffffffffffffffffffffffffffffffffffffffffffffff1916827bffffffffffffffffffffffffffffffffffffffffffffffffffffffff1916149050919050565b611ea883836123c2565b611eb5600084848461207e565b611ef4576040517f08c379a0000000000000000000000000000000000000000000000000000000008152600401611eeb90613385565b60405180910390fd5b505050565b60008073ffffffffffffffffffffffffffffffffffffffff166002600084815260200190815260200160002060009054906101000a900473ffffffffffffffffffffffffffffffffffffffff1673ffffffffffffffffffffffffffffffffffffffff1614159050919050565b611f7083838361259c565b600073ffffffffffffffffffffffffffffffffffffffff168373ffffffffffffffffffffffffffffffffffffffff161415611fb357611fae816125a1565b611ff2565b8173ffffffffffffffffffffffffffffffffffffffff168373ffffffffffffffffffffffffffffffffffffffff1614611ff157611ff083826125ea565b5b5b600073ffffffffffffffffffffffffffffffffffffffff168273ffffffffffffffffffffffffffffffffffffffff1614156120355761203081612757565b612074565b8273ffffffffffffffffffffffffffffffffffffffff168273ffffffffffffffffffffffffffffffffffffffff161461207357612072828261289a565b5b5b505050565b505050565b600061209f8473ffffffffffffffffffffffffffffffffffffffff16612919565b15612208578373ffffffffffffffffffffffffffffffffffffffff1663150b7a026120c861182f565b8786866040518563ffffffff1660e01b81526004016120ea94939291906132ba565b602060405180830381600087803b15801561210457600080fd5b505af192505050801561213557506040513d601f19601f820116820180604052508101906121329190612d72565b60015b6121b8573d8060008114612165576040519150601f19603f3d011682016040523d82523d6000602084013e61216a565b606091505b506000815114156121b0576040517f08c379a00000000000000000000000000000000000000000000000000000000081526004016121a790613385565b60405180910390fd5b805181602001fd5b63150b7a0260e01b7bffffffffffffffffffffffffffffffffffffffffffffffffffffffff1916817bffffffffffffffffffffffffffffffffffffffffffffffffffffffff19161491505061220d565b600190505b949350505050565b6060600082141561225d576040518060400160405280600181526020017f300000000000000000000000000000000000000000000000000000000000000081525090506123bd565b600082905060005b6000821461228f578080612278906138fa565b915050600a826122889190613710565b9150612265565b60008167ffffffffffffffff8111156122d1577f4e487b7100000000000000000000000000000000000000000000000000000000600052604160045260246000fd5b6040519080825280601f01601f1916602001820160405280156123035781602001600182028036833780820191505090505b5090505b600085146123b65760018261231c919061379b565b9150600a8561232b9190613943565b603061233791906136ba565b60f81b818381518110612373577f4e487b7100000000000000000000000000000000000000000000000000000000600052603260045260246000fd5b60200101907effffffffffffffffffffffffffffffffffffffffffffffffffffffffffffff1916908160001a905350600a856123af9190613710565b9450612307565b8093505050505b919050565b600073ffffffffffffffffffffffffffffffffffffffff168273ffffffffffffffffffffffffffffffffffffffff161415612432576040517f08c379a000000000000000000000000000000000000000000000000000000000815260040161242990613485565b60405180910390fd5b61243b81611ef9565b1561247b576040517f08c379a0000000000000000000000000000000000000000000000000000000008152600401612472906133c5565b60405180910390fd5b61248760008383611f65565b6001600360008473ffffffffffffffffffffffffffffffffffffffff1673ffffffffffffffffffffffffffffffffffffffff16815260200190815260200160002060008282546124d791906136ba565b92505081905550816002600083815260200190815260200160002060006101000a81548173ffffffffffffffffffffffffffffffffffffffff021916908373ffffffffffffffffffffffffffffffffffffffff160217905550808273ffffffffffffffffffffffffffffffffffffffff16600073ffffffffffffffffffffffffffffffffffffffff167fddf252ad1be2c89b69c2b068fc378daa952ba7f163c4a11628f55a4df523b3ef60405160405180910390a461259860008383612079565b5050565b505050565b6008805490506009600083815260200190815260200160002081905550600881908060018154018082558091505060019003906000526020600020016000909190919091505550565b600060016125f784610f29565b612601919061379b565b90506000600760008481526020019081526020016000205490508181146126e6576000600660008673ffffffffffffffffffffffffffffffffffffffff1673ffffffffffffffffffffffffffffffffffffffff168152602001908152602001600020600084815260200190815260200160002054905080600660008773ffffffffffffffffffffffffffffffffffffffff1673ffffffffffffffffffffffffffffffffffffffff168152602001908152602001600020600084815260200190815260200160002081905550816007600083815260200190815260200160002081905550505b6007600084815260200190815260200160002060009055600660008573ffffffffffffffffffffffffffffffffffffffff1673ffffffffffffffffffffffffffffffffffffffff16815260200190815260200160002060008381526020019081526020016000206000905550505050565b6000600160088054905061276b919061379b565b90506000600960008481526020019081526020016000205490506000600883815481106127c1577f4e487b7100000000000000000000000000000000000000000000000000000000600052603260045260246000fd5b906000526020600020015490508060088381548110612809577f4e487b7100000000000000000000000000000000000000000000000000000000600052603260045260246000fd5b90600052602060002001819055508160096000838152602001908152602001600020819055506009600085815260200190815260200160002060009055600880548061287e577f4e487b7100000000000000000000000000000000000000000000000000000000600052603160045260246000fd5b6001900381819060005260206000200160009055905550505050565b60006128a583610f29565b905081600660008573ffffffffffffffffffffffffffffffffffffffff1673ffffffffffffffffffffffffffffffffffffffff168152602001908152602001600020600083815260200190815260200160002081905550806007600084815260200190815260200160002081905550505050565b6000808273ffffffffffffffffffffffffffffffffffffffff163b119050919050565b604051806060016040528060008152602001600073ffffffffffffffffffffffffffffffffffffffff168152602001600081525090565b82805461297f90613897565b90600052602060002090601f0160209004810192826129a157600085556129e8565b82601f106129ba57805160ff19168380011785556129e8565b828001600101855582156129e8579182015b828111156129e75782518255916020019190600101906129cc565b5b5090506129f591906129f9565b5090565b5b80821115612a125760008160009055506001016129fa565b5090565b6000612a29612a24846135dc565b6135b7565b905082815260208101848484011115612a4157600080fd5b612a4c848285613855565b509392505050565b6000612a67612a628461360d565b6135b7565b905082815260208101848484011115612a7f57600080fd5b612a8a848285613855565b509392505050565b600081359050612aa181613e4d565b92915050565b600081519050612ab681613e4d565b92915050565b600081359050612acb81613e64565b92915050565b600081359050612ae081613e7b565b92915050565b600081359050612af581613e92565b92915050565b600081519050612b0a81613e92565b92915050565b600082601f830112612b2157600080fd5b8135612b31848260208601612a16565b91505092915050565b600082601f830112612b4b57600080fd5b8135612b5b848260208601612a54565b91505092915050565b600081359050612b7381613ea9565b92915050565b600060208284031215612b8b57600080fd5b6000612b9984828501612a92565b91505092915050565b600060208284031215612bb457600080fd5b6000612bc284828501612aa7565b91505092915050565b60008060408385031215612bde57600080fd5b6000612bec85828601612a92565b9250506020612bfd85828601612a92565b9150509250929050565b600080600060608486031215612c1c57600080fd5b6000612c2a86828701612a92565b9350506020612c3b86828701612a92565b9250506040612c4c86828701612b64565b9150509250925092565b60008060008060808587031215612c6c57600080fd5b6000612c7a87828801612a92565b9450506020612c8b87828801612a92565b9350506040612c9c87828801612b64565b925050606085013567ffffffffffffffff811115612cb957600080fd5b612cc587828801612b10565b91505092959194509250565b60008060408385031215612ce457600080fd5b6000612cf285828601612a92565b9250506020612d0385828601612ad1565b9150509250929050565b60008060408385031215612d2057600080fd5b6000612d2e85828601612a92565b9250506020612d3f85828601612b64565b9150509250929050565b600060208284031215612d5b57600080fd5b6000612d6984828501612ae6565b91505092915050565b600060208284031215612d8457600080fd5b6000612d9284828501612afb565b91505092915050565b60008060408385031215612dae57600080fd5b600083013567ffffffffffffffff811115612dc857600080fd5b612dd485828601612b3a565b9250506020612de585828601612b64565b9150509250929050565b600060208284031215612e0157600080fd5b6000612e0f84828501612b64565b91505092915050565b60008060408385031215612e2b57600080fd5b6000612e3985828601612b64565b9250506020612e4a85828601612a92565b9150509250929050565b60008060408385031215612e6757600080fd5b6000612e7585828601612b64565b9250506020612e8685828601612abc565b9150509250929050565b60008060408385031215612ea357600080fd5b6000612eb185828601612b64565b9250506020612ec285828601612b64565b9150509250929050565b6000612ed88383613242565b60208301905092915050565b612eed816137e1565b82525050565b612efc816137cf565b82525050565b6000612f0d8261364e565b612f17818561367c565b9350612f228361363e565b8060005b83811015612f53578151612f3a8882612ecc565b9750612f458361366f565b925050600181019050612f26565b5085935050505092915050565b612f69816137f3565b82525050565b6000612f7a82613659565b612f84818561368d565b9350612f94818560208601613864565b612f9d81613a30565b840191505092915050565b6000612fb382613664565b612fbd818561369e565b9350612fcd818560208601613864565b612fd681613a30565b840191505092915050565b6000612fec82613664565b612ff681856136af565b9350613006818560208601613864565b80840191505092915050565b600061301f602b8361369e565b915061302a82613a41565b604082019050919050565b600061304260328361369e565b915061304d82613a90565b604082019050919050565b600061306560258361369e565b915061307082613adf565b604082019050919050565b6000613088601c8361369e565b915061309382613b2e565b602082019050919050565b60006130ab60248361369e565b91506130b682613b57565b604082019050919050565b60006130ce60198361369e565b91506130d982613ba6565b602082019050919050565b60006130f160298361369e565b91506130fc82613bcf565b604082019050919050565b6000613114602e8361369e565b915061311f82613c1e565b604082019050919050565b6000613137603e8361369e565b915061314282613c6d565b604082019050919050565b600061315a60208361369e565b915061316582613cbc565b602082019050919050565b600061317d600e8361369e565b915061318882613ce5565b602082019050919050565b60006131a060188361369e565b91506131ab82613d0e565b602082019050919050565b60006131c360218361369e565b91506131ce82613d37565b604082019050919050565b60006131e6602c8361369e565b91506131f182613d86565b604082019050919050565b600061320960178361369e565b915061321482613dd5565b602082019050919050565b600061322c602e8361369e565b915061323782613dfe565b604082019050919050565b61324b8161384b565b82525050565b61325a8161384b565b82525050565b600061326c8285612fe1565b91506132788284612fe1565b91508190509392505050565b60006020820190506132996000830184612ef3565b92915050565b60006020820190506132b46000830184612ee4565b92915050565b60006080820190506132cf6000830187612ef3565b6132dc6020830186612ef3565b6132e96040830185613251565b81810360608301526132fb8184612f6f565b905095945050505050565b600060208201905081810360008301526133208184612f02565b905092915050565b600060208201905061333d6000830184612f60565b92915050565b6000602082019050818103600083015261335d8184612fa8565b905092915050565b6000602082019050818103600083015261337e81613012565b9050919050565b6000602082019050818103600083015261339e81613035565b9050919050565b600060208201905081810360008301526133be81613058565b9050919050565b600060208201905081810360008301526133de8161307b565b9050919050565b600060208201905081810360008301526133fe8161309e565b9050919050565b6000602082019050818103600083015261341e816130c1565b9050919050565b6000602082019050818103600083015261343e816130e4565b9050919050565b6000602082019050818103600083015261345e81613107565b9050919050565b6000602082019050818103600083015261347e8161312a565b9050919050565b6000602082019050818103600083015261349e8161314d565b9050919050565b600060208201905081810360008301526134be81613170565b9050919050565b600060208201905081810360008301526134de81613193565b9050919050565b600060208201905081810360008301526134fe816131b6565b9050919050565b6000602082019050818103600083015261351e816131d9565b9050919050565b6000602082019050818103600083015261353e816131fc565b9050919050565b6000602082019050818103600083015261355e8161321f565b9050919050565b600060208201905061357a6000830184613251565b92915050565b60006060820190506135956000830186613251565b6135a26020830185612ee4565b6135af6040830184613251565b949350505050565b60006135c16135d2565b90506135cd82826138c9565b919050565b6000604051905090565b600067ffffffffffffffff8211156135f7576135f6613a01565b5b61360082613a30565b9050602081019050919050565b600067ffffffffffffffff82111561362857613627613a01565b5b61363182613a30565b9050602081019050919050565b6000819050602082019050919050565b600081519050919050565b600081519050919050565b600081519050919050565b6000602082019050919050565b600082825260208201905092915050565b600082825260208201905092915050565b600082825260208201905092915050565b600081905092915050565b60006136c58261384b565b91506136d08361384b565b9250827fffffffffffffffffffffffffffffffffffffffffffffffffffffffffffffffff0382111561370557613704613974565b5b828201905092915050565b600061371b8261384b565b91506137268361384b565b925082613736576137356139a3565b5b828204905092915050565b600061374c8261384b565b91506137578361384b565b9250817fffffffffffffffffffffffffffffffffffffffffffffffffffffffffffffffff04831182151516156137905761378f613974565b5b828202905092915050565b60006137a68261384b565b91506137b18361384b565b9250828210156137c4576137c3613974565b5b828203905092915050565b60006137da8261382b565b9050919050565b60006137ec8261382b565b9050919050565b60008115159050919050565b60007fffffffff0000000000000000000000000000000000000000000000000000000082169050919050565b600073ffffffffffffffffffffffffffffffffffffffff82169050919050565b6000819050919050565b82818337600083830152505050565b60005b83811015613882578082015181840152602081019050613867565b83811115613891576000848401525b50505050565b600060028204905060018216806138af57607f821691505b602082108114156138c3576138c26139d2565b5b50919050565b6138d282613a30565b810181811067ffffffffffffffff821117156138f1576138f0613a01565b5b80604052505050565b60006139058261384b565b91507fffffffffffffffffffffffffffffffffffffffffffffffffffffffffffffffff82141561393857613937613974565b5b600182019050919050565b600061394e8261384b565b91506139598361384b565b925082613969576139686139a3565b5b828206905092915050565b7f4e487b7100000000000000000000000000000000000000000000000000000000600052601160045260246000fd5b7f4e487b7100000000000000000000000000000000000000000000000000000000600052601260045260246000fd5b7f4e487b7100000000000000000000000000000000000000000000000000000000600052602260045260246000fd5b7f4e487b7100000000000000000000000000000000000000000000000000000000600052604160045260246000fd5b6000601f19601f8301169050919050565b7f455243373231456e756d657261626c653a206f776e657220696e646578206f7560008201527f74206f6620626f756e6473000000000000000000000000000000000000000000602082015250565b7f4552433732313a207472616e7366657220746f206e6f6e20455243373231526560008201527f63656976657220696d706c656d656e7465720000000000000000000000000000602082015250565b7f4552433732313a207472616e736665722066726f6d20696e636f72726563742060008201527f6f776e6572000000000000000000000000000000000000000000000000000000602082015250565b7f4552433732313a20746f6b656e20616c7265616479206d696e74656400000000600082015250565b7f4552433732313a207472616e7366657220746f20746865207a65726f2061646460008201527f7265737300000000000000000000000000000000000000000000000000000000602082015250565b7f4552433732313a20617070726f766520746f2063616c6c657200000000000000600082015250565b7f4552433732313a2061646472657373207a65726f206973206e6f74206120766160008201527f6c6964206f776e65720000000000000000000000000000000000000000000000602082015250565b7f45524337323155524953746f726167653a2055524920736574206f66206e6f6e60008201527f6578697374656e7420746f6b656e000000000000000000000000000000000000602082015250565b7f4552433732313a20617070726f76652063616c6c6572206973206e6f7420746f60008201527f6b656e206f776e6572206e6f7220617070726f76656420666f7220616c6c0000602082015250565b7f4552433732313a206d696e7420746f20746865207a65726f2061646472657373600082015250565b7f4e6f7420596f757220546f6b656e000000000000000000000000000000000000600082015250565b7f4552433732313a20696e76616c696420746f6b656e2049440000000000000000600082015250565b7f4552433732313a20617070726f76616c20746f2063757272656e74206f776e6560008201527f7200000000000000000000000000000000000000000000000000000000000000602082015250565b7f455243373231456e756d657261626c653a20676c6f62616c20696e646578206f60008201527f7574206f6620626f756e64730000000000000000000000000000000000000000602082015250565b7f546f6b656e20494420646f6573206e6f74206d61746368000000000000000000600082015250565b7f4552433732313a2063616c6c6572206973206e6f7420746f6b656e206f776e6560008201527f72206e6f7220617070726f766564000000000000000000000000000000000000602082015250565b613e56816137cf565b8114613e6157600080fd5b50565b613e6d816137e1565b8114613e7857600080fd5b50565b613e84816137f3565b8114613e8f57600080fd5b50565b613e9b816137ff565b8114613ea657600080fd5b50565b613eb28161384b565b8114613ebd57600080fd5b5056fea26469706673582212207c1f72f15b809beedc47e93a5905cb5d8140f513f02ad4652b866cd0a96f0f7064736f6c63430008040033",
  "linkReferences": {},
  "deployedLinkReferences": {}
}